:100000000C9434000C943E000C943E000C943E0082
:100010000C943E000C943E000C943E000C943E0068
:100020000C943E000C943E000C943E000C943E0058
:100030000C943E000C943E000C943E000C943E0048
:100040000C943E000C943E000C943E000C943E0038
:100050000C943E000C943E000C943E000C943E0028
:100060000C943E000C943E0011241FBECFEFD8E04C
:10007000DEBFCDBF0E9440000C9464000C940000D1
:1000800050982098589A289A389A40E951E048990F
:100090000FC018990DC0409A20E030E0CA010197C6
:1000A000F1F72F5F3F4F283C3105C1F7489BF1CF57
:1000B000409820E030E0CA010197F1F72F5F3F4FF1
:0C00C000283C3105C1F7E3CFF894FFCFD6
:00000001FF
